{
	"data": {
		"bytecode": {
			"linkReferences": {},
			"object": "608060405234801561001057600080fd5b506101c6806100206000396000f3fe608060405234801561001057600080fd5b50600436106100365760003560e01c80631828d7191461003b578063bd1c4ad414610059575b600080fd5b610043610077565b60405161005091906100e6565b60405180910390f35b61006161008c565b60405161006e91906100e6565b60405180910390f35b600061008760016002600361009f565b905090565b600061009a600260036100c1565b905090565b60008183856100ae9190610101565b6100b89190610101565b90509392505050565b600081836100cf9190610101565b905092915050565b6100e081610157565b82525050565b60006020820190506100fb60008301846100d7565b92915050565b600061010c82610157565b915061011783610157565b9250827fffffffffffffffffffffffffffffffffffffffffffffffffffffffffffffffff0382111561014c5761014b610161565b5b828201905092915050565b6000819050919050565b7f4e487b7100000000000000000000000000000000000000000000000000000000600052601160045260246000fdfea2646970667358221220871e0a324be1e899a0b75c6d069896ddaec1de3cfc33f3a8be6f3c046f6878db64736f6c63430008070033",
			"opcodes": "PUSH1 0x80 PUSH1 0x40 MSTORE CALLVALUE DUP1 ISZERO PUSH2 0x10 JUMPI PUSH1 0x0 DUP1 REVERT JUMPDEST POP PUSH2 0x1C6 DUP1 PUSH2 0x20 PUSH1 0x0 CODECOPY PUSH1 0x0 RETURN INVALID PUSH1 0x80 PUSH1 0x40 MSTORE CALLVALUE DUP1 ISZERO PUSH2 0x10 JUMPI PUSH1 0x0 DUP1 REVERT JUMPDEST POP PUSH1 0x4 CALLDATASIZE LT PUSH2 0x36 JUMPI PUSH1 0x0 CALLDATALOAD PUSH1 0xE0 SHR DUP1 PUSH4 0x1828D719 EQ PUSH2 0x3B JUMPI DUP1 PUSH4 0xBD1C4AD4 EQ PUSH2 0x59 JUMPI JUMPDEST PUSH1 0x0 DUP1 REVERT JUMPDEST PUSH2 0x43 PUSH2 0x77 JUMP JUMPDEST PUSH1 0x40 MLOAD PUSH2 0x50 SWAP2 SWAP1 PUSH2 0xE6 JUMP JUMPDEST PUSH1 0x40 MLOAD DUP1 SWAP2 SUB SWAP1 RETURN JUMPDEST PUSH2 0x61 PUSH2 0x8C JUMP JUMPDEST PUSH1 0x40 MLOAD PUSH2 0x6E SWAP2 SWAP1 PUSH2 0xE6 JUMP JUMPDEST PUSH1 0x40 MLOAD DUP1 SWAP2 SUB SWAP1 RETURN JUMPDEST PUSH1 0x0 PUSH2 0x87 PUSH1 0x1 PUSH1 0x2 PUSH1 0x3 PUSH2 0x9F JUMP JUMPDEST SWAP1 POP SWAP1 JUMP JUMPDEST PUSH1 0x0 PUSH2 0x9A PUSH1 0x2 PUSH1 0x3 PUSH2 0xC1 JUMP JUMPDEST SWAP1 POP SWAP1 JUMP JUMPDEST PUSH1 0x0 DUP2 DUP4 DUP6 PUSH2 0xAE SWAP2 SWAP1 PUSH2 0x101 JUMP JUMPDEST PUSH2 0xB8 SWAP2 SWAP1 PUSH2 0x101 JUMP JUMPDEST SWAP1 POP SWAP4 SWAP3 POP POP POP JUMP JUMPDEST PUSH1 0x0 DUP2 DUP4 PUSH2 0xCF SWAP2 SWAP1 PUSH2 0x101 JUMP JUMPDEST SWAP1 POP SWAP3 SWAP2 POP POP JUMP JUMPDEST PUSH2 0xE0 DUP2 PUSH2 0x157 JUMP JUMPDEST DUP3 MSTORE POP POP JUMP JUMPDEST PUSH1 0x0 PUSH1 0x20 DUP3 ADD SWAP1 POP PUSH2 0xFB PUSH1 0x0 DUP4 ADD DUP5 PUSH2 0xD7 JUMP JUMPDEST SWAP3 SWAP2 POP POP JUMP JUMPDEST PUSH1 0x0 PUSH2 0x10C DUP3 PUSH2 0x157 JUMP JUMPDEST SWAP2 POP PUSH2 0x117 DUP4 PUSH2 0x157 JUMP JUMPDEST SWAP3 POP DUP3 PUSH32 0xFFFFFFFFFFFFFFFFFFFFFFFFFFFFFFFFFFFFFFFFFFFFFFFFFFFFFFFFFFFFFFFF SUB DUP3 GT ISZERO PUSH2 0x14C JUMPI PUSH2 0x14B PUSH2 0x161 JUMP JUMPDEST JUMPDEST DUP3 DUP3 ADD SWAP1 POP SWAP3 SWAP2 POP POP JUMP JUMPDEST PUSH1 0x0 DUP2 SWAP1 POP SWAP2 SWAP1 POP JUMP JUMPDEST PUSH32 0x4E487B7100000000000000000000000000000000000000000000000000000000 PUSH1 0x0 MSTORE PUSH1 0x11 PUSH1 0x4 MSTORE PUSH1 0x24 PUSH1 0x0 REVERT INVALID LOG2 PUSH5 0x6970667358 0x22 SLT KECCAK256 DUP8 0x1E EXP ORIGIN 0x4B 0xE1 0xE8 SWAP10 LOG0 0xB7 0x5C PUSH14 0x69896DDAEC1DE3CFC33F3A8BE6F EXTCODECOPY DIV PUSH16 0x6878DB64736F6C634300080700330000 "
		},
		"gasEstimates": {
			"creation": {
				"codeDepositCost": "90800",
				"executionCost": "141",
				"totalCost": "90941"
			},
			"external": {
				"getSum2Result()": "infinite",
				"getSum3Result()": "infinite"
			},
			"internal": {
				"getSum(uint256,uint256)": "infinite",
				"getSum(uint256,uint256,uint256)": "infinite"
			}
		},
		"methodIdentifiers": {
			"getSum2Result()": "bd1c4ad4",
			"getSum3Result()": "1828d719"
		}
	},
	"abi": [
		{
			"inputs": [],
			"name": "getSum2Result",
			"outputs": [
				{
					"internalType": "uint256",
					"name": "",
					"type": "uint256"
				}
			],
			"stateMutability": "pure",
			"type": "function"
		},
		{
			"inputs": [],
			"name": "getSum3Result",
			"outputs": [
				{
					"internalType": "uint256",
					"name": "",
					"type": "uint256"
				}
			],
			"stateMutability": "pure",
			"type": "function"
		}
	]
}