{
	"data": {
		"bytecode": {
			"linkReferences": {},
			"object": "608060405234801561001057600080fd5b5060f88061001f6000396000f3fe6080604052348015600f57600080fd5b506004361060325760003560e01c80633c35a0c1146037578063f8a8fd6d14603f575b600080fd5b603d6047565b005b60456067565b005b610e10801460565760556093565b5b610e10801460655760646093565b5b565b670de0b6b3a76400008014607c57607b6093565b5b670de0b6b3a7640000801460915760906093565b5b565b7f4e487b7100000000000000000000000000000000000000000000000000000000600052600160045260246000fdfea26469706673582212209b55ab360988445415c3541f45abb9157605ac9bcb200a8ce0b585b11938a38564736f6c63430008070033",
			"opcodes": "PUSH1 0x80 PUSH1 0x40 MSTORE CALLVALUE DUP1 ISZERO PUSH2 0x10 JUMPI PUSH1 0x0 DUP1 REVERT JUMPDEST POP PUSH1 0xF8 DUP1 PUSH2 0x1F PUSH1 0x0 CODECOPY PUSH1 0x0 RETURN INVALID PUSH1 0x80 PUSH1 0x40 MSTORE CALLVALUE DUP1 ISZERO PUSH1 0xF JUMPI PUSH1 0x0 DUP1 REVERT JUMPDEST POP PUSH1 0x4 CALLDATASIZE LT PUSH1 0x32 JUMPI PUSH1 0x0 CALLDATALOAD PUSH1 0xE0 SHR DUP1 PUSH4 0x3C35A0C1 EQ PUSH1 0x37 JUMPI DUP1 PUSH4 0xF8A8FD6D EQ PUSH1 0x3F JUMPI JUMPDEST PUSH1 0x0 DUP1 REVERT JUMPDEST PUSH1 0x3D PUSH1 0x47 JUMP JUMPDEST STOP JUMPDEST PUSH1 0x45 PUSH1 0x67 JUMP JUMPDEST STOP JUMPDEST PUSH2 0xE10 DUP1 EQ PUSH1 0x56 JUMPI PUSH1 0x55 PUSH1 0x93 JUMP JUMPDEST JUMPDEST PUSH2 0xE10 DUP1 EQ PUSH1 0x65 JUMPI PUSH1 0x64 PUSH1 0x93 JUMP JUMPDEST JUMPDEST JUMP JUMPDEST PUSH8 0xDE0B6B3A7640000 DUP1 EQ PUSH1 0x7C JUMPI PUSH1 0x7B PUSH1 0x93 JUMP JUMPDEST JUMPDEST PUSH8 0xDE0B6B3A7640000 DUP1 EQ PUSH1 0x91 JUMPI PUSH1 0x90 PUSH1 0x93 JUMP JUMPDEST JUMPDEST JUMP JUMPDEST PUSH32 0x4E487B7100000000000000000000000000000000000000000000000000000000 PUSH1 0x0 MSTORE PUSH1 0x1 PUSH1 0x4 MSTORE PUSH1 0x24 PUSH1 0x0 REVERT INVALID LOG2 PUSH5 0x6970667358 0x22 SLT KECCAK256 SWAP12 SSTORE 0xAB CALLDATASIZE MULMOD DUP9 DIFFICULTY SLOAD ISZERO 0xC3 SLOAD 0x1F GASLIMIT 0xAB 0xB9 ISZERO PUSH23 0x5AC9BCB200A8CE0B585B11938A38564736F6C63430008 SMOD STOP CALLER "
		},
		"gasEstimates": {
			"creation": {
				"codeDepositCost": "49600",
				"executionCost": "99",
				"totalCost": "49699"
			},
			"external": {
				"test()": "190",
				"testTime()": "168"
			}
		},
		"methodIdentifiers": {
			"test()": "f8a8fd6d",
			"testTime()": "3c35a0c1"
		}
	},
	"abi": [
		{
			"inputs": [],
			"name": "test",
			"outputs": [],
			"stateMutability": "nonpayable",
			"type": "function"
		},
		{
			"inputs": [],
			"name": "testTime",
			"outputs": [],
			"stateMutability": "nonpayable",
			"type": "function"
		}
	]
}